:020000040000FA
:060000003EEF02F01200C9
:020006000000F8
:080008000001609160836B6B45
:100010006C6B6D6B60956087609B6099786B796B9A
:100020007A6B400EAF6EAC84949C948E9F989F9A8E
:10003000AC8AAB88AB8E9D889D8AF28EF28C1200C2
:10004000D9CFE6FFE1CFD9FF000160A102D0000EB9
:1000500018D09D986C51EA6A610FE96E000EEA2291
:10006000FE0EDBCFEFFF60936B2B0A0E6B5D01E1A1
:1000700060816C2B0A0E6C5D01E16C6B9D88010E3A
:1000800000D0E552E7CFD9FF12000A0E00016B5DE8
:1000900005E20A0ED8806B5503D002D0000E00D0C6
:1000A0001200D9CFE6FFE1CFD9FF000160A702D04F
:1000B000000E1FD09D9A60957A51EA6A6E0FE96E24
:1000C000000EEA22EF50E66EFD0EDBCFE9FFFE0EDA
:1000D000DBCFEAFFE552E750EF6E7807785101E198
:1000E00060877A2B0A0E7A5D01E17A6B9D8A010E98
:1000F00000D0E552E7CFD9FF12000001785100D0BF
:100100001200D9CFE6FFE1CFD9FFE6529D50100B88
:1001100001E0010E026E9E50100B01E0010E021470
:1001200019E0000160B314D06D51EA6A610FE96E05
:10013000000EEA22EF50AD6E60B160916B076B511B
:1001400001E160836D2B0A0E6D5D01E16D6B01D0E5
:100150009D9838D09D50200B01E0010E026E9E50FC
:10016000200B01E0010E02142DE0ABA405D0AE502F
:10017000DF6E0001608B26D0ABA207D0AB98AB88B6
:10018000AE50DF6E0001608B1DD0000160A504D071
:10019000AE50DF6E608916D060B514D0609960975C
:1001A0007951EA6A6E0FE96E000EEA22AECFEFFFD8
:1001B000782B0A0E785D01E16085792B0A0E795D56
:0E01C00001E1796BE552E552E7CFD9FF12005D
:0201CE00060E1B
:1001D000F66E000EF76E000EF86E00010900F55085
:1001E000806F0900F550816F03E1806701D03DD039
:1001F0000900F5507B6F0900F5507C6F0900F55040
:100200007D6F09000900F550E96E0900F550EA6EAE
:10021000090009000900F5507E6F0900F5507F6F55
:1002200009000900F6CF82F0F7CF83F0F8CF84F011
:100230007BC0F6FF7CC0F7FF7DC0F8FF00017E5356
:1002400002E17F5307E00900F550EE6E7E07F8E209
:100250007F07F9D782C0F6FF83C0F7FF84C0F8FF9D
:0C02600000018007000E815BBFD7120078
:04026C00D9CFE6FF01
:10027000DACFE6FFE1CFD9FFE2CFDAFFAC6AAB6AB3
:10028000FD0EDBB0AC88DBA202D0AC8CAB8CDBB457
:10029000AC8EDBA602D0AB8801D0AB8ADBB8AC84D5
:1002A0009E98DBBAAB86DBAC02D09D8A01D09D9ACA
:1002B0009E9ADBAE02D09D8801D09D98FB0EDB504C
:1002C000AF6EFB0EFC0EDBCF03F003C002F0036A3F
:1002D0000250B06EAC8AAB8E939E938AAC50100BDA
:1002E00004E0AC50800B01E1938EE552E5CFDAFFDC
:0602F000E7CFD9FF120068
:0A02F600D9CFE6FFE1CFD9FF020ED9
:10030000E126926A946A8B88600ED36E7F0EC16E6E
:100310000C0EE66EE66A6C0EE66E36EC01F0E55207
:10032000E552E552F28CF28EE66A010EE66EE66A5E
:10033000B1EC01F0E552E552E552010EE66EE66AD7
:10034000E66AE5EC01F0E552E552E552F6D7020E19
:10035000E15C02E2E16AE552E16EE552E7CFD9FFE6
:02036000120089
:0E036200D9CFE6FFDACFE6FFE1CFD9FFE2CF39
:10037000DAFF3F0EC716C66AFD0EDB50C612FB0E33
:10038000DB50C712FC0EDB50030A09E0010A04E04F
:10039000020A06E1C78C04D0C78CC68801D0C68883
:1003A000FD0EDB50050A05E0010A05E1938C948CF3
:1003B00003D0938C01D0939C949E9388C68AE55277
:0A03C000E5CFDAFFE7CFD9FF120006
:0603CA00D9CFE6FFDACFF7
:1003D000E6FFE1CFD9FFE2CFDAFFACA2FED7FB0EFA
:1003E000DBCFF6FFFC0EDBCFF7FFFD0EDBCFF8FF18
:1003F0000800F550E66E17EC02F0E552D950FB0FFD
:10040000E96EFF0EDA20EA6EEFCFF6FFEE2AEFCFAD
:10041000F7FF000EEE22EFCFF8FFEE220800F550B6
:0E042000DCE1E552E5CFDAFFE7CFD9FF1200AD
:02042E00D9CF24
:10043000E6FFDACFE6FFE1CFD9FFE2CFDAFFACACDF
:1004400004D0AC90000185B3AC80FD0EDB50AD6EE6
:0C045000E552E5CFDAFFE7CFD9FF12003C
:04045C00000EF36E2D
:1004600000EE00F0030E01D81200EA6002D0EE6A3E
:0C047000FCD7F350E9601200EE6AFCD7E4
:04047C0011EE00F08D
:1004800021EE00F0F86A019CE7EC00F04CEC02F081
:080490007BEC01F0FBD7120028
:02049800120050
:020000040030CA
:0100000028D7
:0100010028D6
:0100020007F6
:010003001EDE
:01000900C036
:00000001FF
